:020000040000FA
:100000000C9459010C9481010C9481010C94810190
:100010000C9481010C9481010C9481010C94810158
:100020000C9481010C9481010C9481010C94810148
:100030000C9481010C9481010C9481010C94810138
:100040000C94B21D0C9481010C94221E0C94FC1D86
:100050000C9481010C9481010C9481010C94810118
:100060000C9481010C94810100407A10F35A00A095
:10007000724E18090010A5D4E80000E87648170071
:1000800000E40B54020000CA9A3B000000E1F505B1
:10009000000080969800000040420F000000A086FB
:1000A00001000000102700000000E803000000002D
:1000B0006400000000000A000000000001000000D1
:1000C00000002C76D888DC674F0823DFC1DFAE59EB
:1000D000E1B1B796E5E3E453C63AE651997696E87E
:1000E000E6C28426EB898C9B62ED407C6FFCEFBC02
:1000F0009C9F40F2BAA56FA5F490055A2AF75C932D
:100100006B6CF9676DC11BFCE0E40D47FEF520E662
:10011000B500D0ED902E0300943577050080841E45
:10012000080000204E0A000000C80C333333330FA0
:10013000986E12831141EF8D2114893BE65516CF3D
:10014000FEE6DB18D1844B381BF77C1D901DA4BB49
:10015000E424203284725E228100C9F124ECA1E5FE
:100160003D2725732573007B227375636365737365
:10017000223A66616C73652C22636F6465223A349F
:1001800030347D007B2273756363657373223A7428
:100190007275652C22726573756C74223A22257310
:1001A000227D007B2273756363657373223A7472D8
:1001B00075652C2272656C6179223A25752C227541
:1001C0007074696D65223A256C757D00676574539E
:1001D00074617475730073657452656C6179007B2A
:1001E0002274656D7065726174757265223A20259E
:1001F000732C2268756D6964697479223A25732CB1
:10020000226C6D333554656D70223A25732C22763D
:100210006962726174696F6E223A25752C226D6174
:100220006368696E65537461747573223A25752C21
:100230002272656C61795374617465223A25752C5C
:100240002273656E736F724572726F72223A2575F2
:10025000207D0000000000240027002A000000008C
:1002600000250028002B000000000800020100000B
:10027000030407000000000000000000000000234D
:1002800000260029000404040404040404020202F9
:1002900002020203030303030301020408102040C7
:1002A0008001020408102001020408102000541EDE
:1002B0006B2711241FBECFEFD8E0DEBFCDBF12E009
:1002C000A0E0B1E0E0E8F2E602C005900D92AC38A3
:1002D000B107D9F725E0ACE8B2E001C01D92A8341F
:1002E000B207E1F711E0C8E5D1E004C02197FE01B3
:1002F0000E94932FC735D107C9F70E94621F0C9443
:1003000033310C940000CF93DF93EC01FA01329665
:10031000E60FF71FDC019D012C1B3D0BCF01861B57
:10032000970B4D91442311F04193F5CFAC01421B43
:10033000530B640F751FFB013297308361507109B5
:10034000FB012083DF91CF9108958CBD9DBD089561
:1003500020E3FC0120833296862F82958F706F7088
:100360006A3030F4605D6293682F8111F5CF089593
:10037000695CF9CFCF92DF92EF92FF92CF93DF9338
:10038000B091EE04A0E08111AB2F8091EF0490E0DA
:10039000880F991FAC0145585D4FC090F404D09070
:1003A000F504E090F604F090F70430E020E0FA0164
:1003B000C591D491E881B90190E080E0EB23EA1384
:1003C0000AC02F5F3F4F6C157D058E059F0578F3A2
:1003D0006FEF7FEFCB01DF91CF91FF90EF90DF9038
:1003E000CF900895FC01818D928D089508958330FA
:1003F00081F028F4813099F08230A9F00895873097
:10040000A9F08830C9F08430B1F4809180008F7DEC
:1004100003C0809180008F7780938000089584B519
:100420008F7784BD089584B58F7DFBCF8091B00018
:100430008F778093B00008958091B0008F7DF9CFC1
:100440001F93CF93DF93282F30E0F901E959FD4F37
:100450008491F901E756FD4FD491F901EB57FD4F17
:10046000C491CC23A9F0162F81110E94F701EC2F23
:10047000F0E0EE0FFF1FE35AFD4FA591B4918FB747
:10048000F894EC91111108C0D095DE23DC938FBF56
:10049000DF91CF911F910895DE2BF8CFCF93DF939B
:1004A00090E0FC01E756FD4F24918B579D4FFC01D6
:1004B00084918823D1F090E0880F991FFC01ED5AB8
:1004C000FD4FA591B491FC01E35AFD4FC591D49124
:1004D000623071F49FB7F8943C91822F809583230A
:1004E0008C93E8812E2B28839FBFDF91CF910895B5
:1004F0008FB7F894EC912E2B2C938FBFF6CF8E50A4
:10050000806480937C0080917A00806480937A007C
:1005100080917A0086FDFCCF8091780090917900DF
:1005200008953FB7F8948091E7039091E803A09174
:10053000E903B091EA0326B5A89B05C02F3F19F047
:100540000196A11DB11D3FBFBA2FA92F982F882753
:10055000BC01CD01620F711D811D911D42E0660F2E
:10056000771F881F991F4A95D1F708958F929F9200
:10057000AF92BF92CF92DF92EF92FF924B015C015C
:100580000E9491026B017C010E9491026C197D090D
:100590008E099F09683E734081059105A8F321E00B
:1005A000821A9108A108B10888EEC80E83E0D81E0F
:1005B000E11CF11C81149104A104B10429F7FF90FE
:1005C000EF90DF90CF90BF90AF909F908F90089565
:1005D0002FB7F8946091E3037091E4038091E503F1
:1005E0009091E6032FBF0895CF92DF92EF92FF9292
:1005F0000F931F93CF93DF93CDB7DEB7C054D14095
:100600000FB6F894DEBF0FBECDBF0E94E802009186
:10061000F0041091F1042091F2043091F3046B0185
:100620007C01C01AD10AE20AF30A97018601003D53
:1006300017402105310590F48091F804C05CDE4F2D
:100640000FB6F894DEBF0FBECDBFDF91CF911F91E3
:100650000F91FF90EF90DF90CF9008956093F0049A
:100660007093F1048093F2049093F3041092EB04DE
:100670001092EA041092E9041092E8041092E70440
:1006800062E08091EC040E944E0261E070E080E044
:1006900090E00E94B60261E08091EC040E944E025C
:1006A00060E08091EC040E9420028091ED0485516D
:1006B000823020F58BE291E10197F1F762E08091C1
:1006C000EC040E944E028091F90490E08230910582
:1006D00038F0880F991F880F991F05970197F1F738
:1006E000F89480E00E94BA016F3F7F4F8F4F9F4F79
:1006F00061F41092F804789480E0A0CF64E170E097
:1007000080E090E00E94B602D9CF81E00E94BA0159
:100710006F3F7F4F8F4F9F4F61F38E010F5F1F4FD2
:100720006E012FEBC21A2EEFD20A780180E00E94F0
:10073000BA01F701608371838283938381E00E9411
:10074000BA01F7016483758386839783F8E0EF0E1F
:10075000F11CEC14FD0451F7789430E020E0F8012E
:10076000C080D180E280F3804481558166817781A9
:10077000FFEFCF16DF06EF06FF0631F04F3F8FEF9A
:1007800058076807780719F41092F804B5CFF901F3
:1007900083E0F595E7958A95E1F7E951FB4F808174
:1007A000880FC416D506E606F70610F180832F5F82
:1007B0003F4F085F1F4F2832310589F64091EB0407
:1007C0002091E7048091E804280F3327331F80919C
:1007D000E904280F311D8091EA04820F932F911DA7
:1007E00099274817190681F681E08093F80426CFEF
:1007F0008160DCCF80918C020895AF92BF92CF923E
:10080000DF92EF92FF920F931F93CF93DF936C01D0
:100810007B018B01040F151FEB015E01AE18BF08B1
:10082000C017D10759F06991D601ED91FC91019063
:10083000F081E02DC6010995892B79F7C501DF917B
:10084000CF911F910F91FF90EF90DF90CF90BF90CD
:10085000AF900895FC01538D448D252F30E0842FF7
:1008600090E0821B930B541710F0CF9608950197D8
:100870000895FC01918D828D981761F0A28DAE0FC5
:10088000BF2FB11D5D968C91928D9F5F9F73928F4C
:1008900090E008958FEF9FEF0895FC01918D828D78
:1008A000981731F0828DE80FF11D858D90E0089545
:1008B0008FEF9FEF0895FC01918D228D892F90E09D
:1008C000805C9F4F821B91098F739927089588E060
:1008D00094E00E945B0421E0892B09F420E0822F40
:1008E000089580E090E0892B29F00E94670481112F
:1008F0000C9400000895FC01A48DA80FB92FB11D20
:10090000A35ABF4F2C91848D90E001968F73992745
:10091000848FA689B7892C93A089B1898C91837023
:1009200080648C93938D848D981306C00288F3891C
:10093000E02D80818F7D80830895EF92FF920F9349
:100940001F93CF93DF93EC0181E0888F9B8D8C8D7B
:1009500098131AC0E889F989808185FF15C09FB76F
:10096000F894EE89FF896083E889F9898081837032
:10097000806480839FBF81E090E0DF91CF911F91E1
:100980000F91FF90EF900895F62E0B8D10E00F5F02
:100990001F4F0F731127E02E8C8D8E110CC00FB6D8
:1009A00007FCFACFE889F989808185FFF5CFCE0170
:1009B0000E947B04F1CFEB8DEC0FFD2FF11DE35A6C
:1009C000FF4FF0829FB7F8940B8FEA89FB898081F3
:1009D0008062CFCFCF93DF93EC01888D8823B9F06D
:1009E000AA89BB89E889F9898C9185FD03C080813A
:1009F00086FD0DC00FB607FCF7CF8C9185FFF2CFB7
:100A0000808185FFEDCFCE010E947B04E9CFDF918D
:100A1000CF910895CF93DF93FC01A481B581109706
:100A200011F480E029C0EC01ED91FC91119706884A
:100A3000F789E02DCD0109952FA138A5811119C0A5
:100A4000232B79F78DEF9FEF98A78FA38C819D8142
:100A5000DC01ED91FC910680F781E02D09958C81F8
:100A60009D81DC01ED91FC910488F589E02D0995CB
:100A7000D8CF81E0232BA9F6DF91CF910895CF92B3
:100A8000DF92EF92FF920F931F93CF93DF9300D0EB
:100A900000D0CDB7DEB78C01F90180E0DE01119600
:100AA0007D019E2F9F77EE0FEF2FEE1FFF0BF1952D
:100AB000309709F09068D701A80FB11D9C938F5F04
:100AC000309779F790E0FA01E81BF90B6483FA019B
:100AD000E81BF90B3596D701BD016E197F09681720
:100AE00079071CF46D916193F7CFFC013196D80121
:100AF00014968D919C917F01E20EF31EBA016E1B3C
:100B00007F0B6B5F7F4FDC01ED91FC910280F381E5
:100B1000E02DA70109956C010E94E802F801608BA5
:100B2000718B828B938B81E0EC14FD0409F080E0E3
:100B30000F900F900F900F90DF91CF911F910F9119
:100B4000FF90EF90DF90CF900895EF92FF920F9378
:100B50001F93CF93DF93EC018B017A010E94E8028F
:100B6000688B798B8A8B9B8B8C819D81DC01ED91CD
:100B7000FC910280F381E02DA701B801DF91CF91B4
:100B80001F910F91FF90EF9009941F93CF93DF93E4
:100B9000EC01162F0E94E802688B798B8A8B9B8B65
:100BA0008C819D81DC01ED91FC910190F081E02D23
:100BB000612FDF91CF911F9109948F929F92AF92F5
:100BC000BF92CF92DF92EF92FF920F931F93CF933A
:100BD000DF93EC018B010E94E8024B015C018C81E8
:100BE0009D81DC01ED91FC910084F185E02D09955A
:100BF000892BA9F40E94E8026B017C01C818D9086E
:100C0000EA08FB082C853D85A8EEB3E00E94B12DD3
:100C1000C616D706E806F90610F380E00CC08C81F2
:100C20009D81DC01ED91FC910284F385E02D099515
:100C3000F801808381E0DF91CF911F910F91FF90A8
:100C4000EF90DF90CF90BF90AF909F908F900895DE
:100C50003F924F925F926F927F928F929F92AF924C
:100C6000BF92CF92DF92EF92FF920F931F93CF9399
:100C7000DF93CDB7DEB764970FB6F894DEBF0FBE33
:100C8000CDBF8C016B01DC0116966D917C910E94A9
:100C9000DD0581111BC060E070E0CB0164960FB6EA
:100CA000F894DEBF0FBECDBFDF91CF911F910F91A2
:100CB000FF90EF90DF90CF90BF90AF909F908F907C
:100CC0007F906F905F904F903F900895D801169657
:100CD000ED91FC9130801982E1E0F0E0FB83EA8342
:100CE000412C512C3201812C912C54018394BE0152
:100CF0006F5F7F4FC8010E94DD05882361F2EA80A3
:100D0000FB80BFEFEB1AFB0A8981D8011696ED91A3
:100D1000FC912A813B81E20FF31F8083E981AE2F92
:100D2000AF77B0E0A50194010E94452D460E571EF5
:100D3000681E791E37E0880C991CAA1CBB1C3A95CA
:100D4000D1F7E7FD44C0332D307F332E8FEF8E0D6A
:100D5000D6018C93B0E33B1353C0F80166817781D1
:100D60006E0D7F1DC8010E94DD05882309F493CF15
:100D7000D80116966D917C918A819B810296680FAD
:100D8000791FC8010E94DD05882309F484CFEA8019
:100D9000FB80B3E0EB0EF11CD8011696ED91FC91AF
:100DA000D6018C91DF01A80FB11D11968C9111977E
:100DB00090E0982F882712962C91820F911D208108
:100DC00021FD0296F2E0E0E030E020E01FC0FB826F
:100DD000EA8297012530310509F089CF8FEF9FEF27
:100DE000D80198969C938E93979714968D919C9189
:100DF000DC01ED91FC910488F589E02D09954BCF3C
:100E0000F0E0E0E030E020E090E080E0A70170E07A
:100E100060E08F2E9E2EA32EB22E481959096A0922
:100E20007B094E835F83688779879C0150E040E0AF
:100E30002B873C874D875E874E815F8168857985EA
:100E4000480D591D6A1D7B1D4A835B836C837D831E
:100E500084149504A604B70408F051C0BE016F5F66
:100E60007F4FC8010E94DD05882309F414CFD80103
:100E700095960D90BC91A02DBC8BAB8BAB2B49F103
:100E8000B0E33B1226C0F60120814EEF5FEF6FEF1B
:100E90007FEF421B5109610971098A819B81AC81F5
:100EA000BD81480F591F6A1F7B1F8B859C85AD85AF
:100EB000BE8584179507A607B70758F4AB89BC8988
:100EC000ED91FC9111970190F081E02D6981CD01A8
:100ED0000995F80180859185E816F90650F4898115
:100EE0000680F781E02DEE0DFF1D8083FFEFEF1AE6
:100EF000FF0A2FEF821A920AA20AB20A9DCFD801E6
:100F000095968D919C919697892B81F418968D9149
:100F10009C91B0E0A0E02A813B814C815D818217E9
:100F20009307A407B50710F4F12CE12CB70190E06A
:100F300080E0B4CEFC0120812EBD9B0121503109FF
:100F400041F051810DB407FEFDCF4EB55EBD41931A
:100F5000F5CF61507109860F971F0DB407FEFDCFC5
:100F60002EB5FC0120830895E0919302F091940244
:100F7000808190919202892B80830895E091930261
:100F8000F0919402908180919202809589238083D0
:100F900008958EBD00000DB407FEFDCF8EB50895F7
:100FA000AF92BF92CF92DF92EF92FF920F931F9377
:100FB000CF93DF93CDB7DEB728970FB6F894DEBF97
:100FC0000FBECDBF8C017B016A0180910704833382
:100FD000E1F45801A40EB51EA016B10609F46FC0C5
:100FE0000E94BE0780EF0E94C907812F0E94C90797
:100FF000802F0E94C9070F5F1F4FF70181917F016A
:101000000E94C9070E94B407E7CF5B01A40EB51E7A
:101010008433C1F40E94BE0719830A838D2D806832
:101020008B83CC8264E070E0CE0101960E949A0727
:10103000AE14BF0409F441C0F70181917F010E9401
:10104000C907F6CF0E94BE070F3F110509F028F42B
:1010500019820A8384E08B830CC017FD17C01982A4
:101060000A8333E0169507953A95E1F7007E0C6008
:101070000B8386E0C816D104A0F5F701DE011496B3
:10108000EA15FB0599F081918D93FACFC80126E00E
:10109000969587952A95E1F7807E19830A83011535
:1010A000104C10F48461D7CF8C61D5CFB6016D5F41
:1010B0007F4FCE0101960E949A070E94B407C60195
:1010C00028960FB6F894DEBF0FBECDBFDF91CF914B
:1010D0001F910F91FF90EF90DF90CF90BF90AF9056
:1010E000089563E070E0CE0101960E949A07F7012F
:1010F00081917F010E94C907AE14BF04C1F7DDCF03
:10110000CF93DF931F92CDB7DEB7898341E050E0E4
:10111000BE016F5F7F4F90E080E00E94D0070F908C
:10112000DF91CF91089590E020910704233339F4A3
:101130000C96982F990F990F990F80E00895489673
:10114000F8CFDA01E0919602F0E0FE2FEE27E60FED
:10115000F71F90E0982F8827A901BD018E0F9F1FD0
:101160000C94D007CF93DF9300D0CDB7DEB779834F
:101170006A8322E030E0AE014F5F5F4F60E170E0D4
:101180000E94A1080F900F90DF91CF910895CF9307
:10119000DF9300D0CDB7DEB779836A8322E030E0F9
:1011A000AE014F5F5F4F64E070E00E94A1080F90B6
:1011B0000F90DF91CF910895CF93DF931F92CDB71A
:1011C000DEB72091960230E0322F2227260F371FFC
:1011D00090E0982F8827498341E050E0BE016F5F7F
:1011E0007F4F820F931F0E94D0070F90DF91CF9106
:1011F0000895CF93DF931F92CDB7DEB76983DC01EB
:10120000ED91FC910280F381E02D41E050E0BE01C0
:101210006F5F7F4F09950F90DF91CF9108950895EB
:10122000FC019485FB018485981303C081E0943010
:1012300008F080E00895CF93DF931F92CDB7DEB71B
:101240006983DC01ED91FC910280F381E02D41E0A6
:1012500050E0BE016F5F7F4F09950F90DF91CF91F6
:10126000089544E050E0BC018FE090E00C94D0077A
:101270000895FF920F931F93CF93DF93EB01FC012F
:10128000178A168A2A81211109C02B81211106C0D3
:101290002C81211103C02D81222301F1411551051B
:1012A000E9F08A01FC01F08C80E591E00E94A50143
:1012B000AE014E5F5F4F24E030E06CE070E08F2DB8
:1012C0000E94A108B8018F2D0E94B20881E090E031
:1012D000DF91CF911F910F91FF90089580E0F7CF9C
:1012E000FC01848595850895FC018489958908957C
:1012F0002DE931E0FC0131832083FB0140895189D4
:1013000062897389FC0142835383648375830895E2
:10131000DC01ED91FC91048CF58DE02D099490E0B9
:1013200080E00895FC01768765870895DC01ED91E2
:10133000FC9102A0F3A1E02D099591E08927089581
:10134000862F089581E08627089521E0FC01848599
:10135000843008F020E0822F08950895AF92BF9264
:10136000CF92DF92EF92FF920F931F93CF93DF9371
:1013700000D000D0CDB7DEB78C016B017A0180912F
:1013800007048333E9F45B016801C40ED51EC0165F
:10139000D106A9F10E94BE078FE00E94C907812FE4
:1013A0000E94C907802F0E94C9070F5F1F4F80E06E
:1013B0000E94C907F50181935F010E94B407E7CF3E
:1013C000843369F50E94BE0719830A838F2D8F77B6
:1013D0008B83EC8264E070E0CE0101960E949A0754
:1013E000A70170E060E0C6010E94E630E114F1045C
:1013F00021F0B701C6010E949A070E94B407C701F5
:101400000F900F900F900F90DF91CF911F910F9140
:10141000FF90EF90DF90CF90BF90AF9008950E9423
:10142000BE070F3F110509F030F419820A831B82B1
:1014300063E070E0D1CF17FD0BC019820A8333E05F
:10144000169507953A95E1F7007E08600B83F0CF7B
:10145000C80126E0969587952A95E1F7807E198345
:101460000A830115104C18F480618B83E1CF8861E9
:10147000FCCFCF93DF931F92CDB7DEB720919602BA
:1014800030E0322F2227260F371F90E0982F882731
:1014900041E050E0BE016F5F7F4F820F931F0E94BB
:1014A000AE0989810F90DF91CF910895CF93C82F16
:1014B000462F61E070E00E94DC0861E070E08C2F54
:1014C0000E94390A8111F9CFCF910895CF93C82F87
:1014D00080E591E00E94A50168E070E08C2FCF913B
:1014E0000C94560ACF93C82F80E591E00E94A50185
:1014F00060E170E08C2FCF910C94560ACF93DF936C
:10150000EC01888D843020F40E94720A84E0888F78
:10151000DF91CF910895CF93C82F80E591E00E948D
:10152000A50163E070E08C2FCF910C94390ACF9322
:10153000DF93EC018C858430D0F40E948B0A8431D7
:1015400089F0882379F0883169F021E08C3159F4F1
:10155000E881F9810084F185E02DCE01099521E033
:10156000892B09F420E0822FDF91CF91089580E04C
:10157000FBCFCF92DF92EF92FF92CF93DF93EC01FC
:101580008C85843068F40E94660A0E94E8026B0130
:101590007C018C850E948B0A811109C084E08C87B4
:1015A000DF91CF91FF90EF90DF90CF90089561E0B1
:1015B00070E080E090E00E94B6020E94E802AB0179
:1015C000BC014C195D096E097F098D859E85B0E0CF
:1015D000A0E0481759076A077B07D8F28C850E945C
:1015E000720ADCCFCF93FC01C08D80E591E00E94B0
:1015F000A50160E270E08C2F0E94560A62E070E064
:101600008C2F0E94390A84FD16C062E070E08C2F96
:101610000E94390A83FF0AC048E162E070E08C2F23
:101620000E94DC0880E090E0CF91089580E591E091
:101630000E94A501E3CF40E162E070E08C2F0E94A0
:10164000DC0881E0F0CFCF93DF931F92CDB7DEB7F8
:1016500041E050E0BE016F5F7F4F90E080E00E946C
:10166000AE0989810F90DF91CF910895CF93DF93D9
:10167000C4E1D0E00E94230B882361F061E070E0B8
:1016800080E090E00E94B6022197A1F780E0DF9110
:10169000CF91089581E0FBCF1F93CF93DF931F92EB
:1016A000CDB7DEB7182F80E591E00E94A501812F0C
:1016B0000E94930827E0129FF0011124E551FC4F8E
:1016C00022813381377041E050E0BE016F5F7F4F70
:1016D000820F931F0E94AE0989810F90DF91CF91F5
:1016E0001F910895FC01808D843040F4218D328D4E
:1016F000232B21F00E944C0B90E008958FEF9FEF79
:101700000895CF93DF93FC012485243028F08FEFD8
:101710009FEFDF91CF910895EC010190F081E02DD2
:101720000084F185E02D0995892B89F38C850E9431
:101730004C0B90E0EECFDA01E0919602F0E0FE2F44
:10174000EE27E60FF71F90E0982F8827A901BD012B
:101750008E0F9F1F0C94AE098F929F92AF92BF92F3
:10176000CF92DF92EF92FF921F93CF93DF93CDB78B
:10177000DEB72C970FB6F894DEBF0FBECDBF209119
:10178000070414E0222339F16B017C0180E591E02C
:101790000E94A5015E0127E0A20EB11C450110E0E8
:1017A00063E070E0812F0E94390AF40181934F01B8
:1017B000882349F11F5F143099F710E0F5018191FA
:1017C0005F018D31D9F08831C9F08A518230B0F093
:1017D0001F5F143099F7812F2C960FB6F894DEBF57
:1017E0000FBECDBFDF91CF911F91FF90EF90DF90A3
:1017F000CF90BF90AF909F908F90089560E170E080
:10180000812F0E94560AA12EB12C83EE93E00197FE
:10181000F1F742E870E060E0812F0E94DC084FEFB2
:1018200062E070E0812F0E94DC08B601C114D1048F
:1018300091F4809106019091070101968115F0ECD9
:101840009F0708F45CC090930701809306016091A4
:10185000060170910701812F0E94C70886E0E2E12E
:10186000F1E0DE01119601900D928A95E1F7F70102
:1018700083818F778C8384818D8385818E83A7017B
:101880004E5F5F4F24E030E06CE070E0812F0E94FB
:10189000A108B601812F0E94B20826E030E0AE0117
:1018A0004F5F5F4F66E070E0812F0E94A10861E00A
:1018B00070E0812F0E94560A27E02A9DC0012B9DCF
:1018C000900D11249C0125513C4F7901F9011182A1
:1018D000108222E030E0AE01455F5F4F68E270E0C9
:1018E000812F0E949B0B8B859C85982789279827A1
:1018F000F701938382831682158214826CCF80E075
:1019000090ECA1CFCF92DF92EF92FF920F931F93B3
:10191000CF93DF9300D000D000D0CDB7DEB78C01DD
:101920006B017A01FC01808D843010F40E94720AF0
:101930008DE991E09A838983F60182819381A48164
:10194000B5818B839C83AD83BE83B701CE010196A5
:101950000E94AC0BF801808F8430A0F4F586E486F9
:10196000128E118E81E026960FB6F894DEBF0FBE60
:10197000CDBFDF91CF911F910F91FF90EF90DF903E
:10198000CF90089580E0EFCFAF92BF92CF92DF92D9
:10199000EF92FF920F931F93CF93DF9300D000D06D
:1019A00000D0CDB7DEB7082F6B0180E591E00E9433
:1019B000A5019E012F5F3F4F7901590110E063E0BF
:1019C00070E0812F0E94390AF50181935F0188231D
:1019D00041F11F5F143099F710E0F70181917F0109
:1019E0008D31D1F08831C1F08A518230A8F01F5F6B
:1019F000143099F7812F26960FB6F894DEBF0FBEEC
:101A0000CDBFDF91CF911F910F91FF90EF90DF90AD
:101A1000CF90BF90AF90089560E170E0812F0E9459
:101A2000560AE12EF12C83EE93E00197F1F7402F57
:101A300070E060E0812F0E94DC084FEF62E070E010
:101A4000812F0E94DC08B601CD2889F4809106011F
:101A50009091070101968115F0EC9F0798F1909302
:101A60000701809306016091060170910701812FA3
:101A70000E94C70861E070E0812F0E94560A27E0AB
:101A80002E9DC0012F9D900D11249C0125513C4F8E
:101A90007901F9011182108222E030E0AE014B5F42
:101AA0005F4F68E270E0812F0E949B0B8D819E81C9
:101AB000982789279827F7019383828316821582B6
:101AC000148298CF80E090ECCACFCF92DF92EF9251
:101AD000FF921F93CF93DF93EC017B016A018C850A
:101AE000843048F40E948B0A882319F08C850E9468
:101AF000660A84E08C87F70182819381A481B58195
:101B00000097A105B10551F490E080E0DF91CF91FD
:101B10001F91FF90EF90DF90CF9008958F3F9F4FE0
:101B2000AF4FBF4F89F380910704811103C084E058
:101B30008C87EACF70E060E081E20E94C40C182F2D
:101B40008C87843008F780E591E00E94A501A70109
:101B50004E5F5F4F24E030E06CE070E0812F0E9428
:101B6000A108B601812F0E94B20864E070E0812FC5
:101B70000E94560A0E94E8026B017C018C850E943B
:101B80008B0A873109F18C31F9F0882309F4BCCF35
:101B90000E94E802AB01BC014C195D096E097F0986
:101BA0008D859E85B0E0A0E084179507A607B7074E
:101BB00038F061E070E080E090E00E94B602DECF95
:101BC0008C850E94720AB3CF81E090E09FCF0F9383
:101BD0001F93CF93DF93EC018B01888D843010F439
:101BE0000E94720A80910704811107C094E0988FC7
:101BF000DF91CF911F910F910895B80182E00E946B
:101C0000C40C888F843030F41D870C871A8E198E8F
:101C100081E0EECF80E0ECCF7F928F929F92AF92E7
:101C2000BF92CF92DF92EF92FF920F931F93CF93C9
:101C3000DF9300D0CDB7DEB7782E8B014A01590172
:101C400022E030E0AE014F5F5F4F64E270E00E943F
:101C50009B0BE980FA80FE24EF24FE24E00EF11EA7
:101C60009701377040910704072D10E0433309F0C6
:101C700042C0085F1F4F102F0027110F110F110FC7
:101C8000C901800F911F4733C9F1A9014A0D5B1D9E
:101C90004130584098F160E078E06B01C21AD30AF5
:101CA000A601B4010E94D007A5014C195D09B40139
:101CB0006C0D7D1DC8010E94D007EA0CFB1CF98247
:101CC000EA8222E030E0AE014F5F5F4F64E270E0F5
:101CD000872D0E94A1080F900F90DF91CF911F9147
:101CE0000F91FF90EF90DF90CF90BF90AF909F90BB
:101CF0008F907F900895005F1F4FBDCFA501B40165
:101D0000DACFEF92FF921F93CF93DF9300D0CDB73E
:101D1000DEB7182F22E030E0AE014F5F5F4F60E288
:101D200070E00E949B0BE980FA80FE24EF24FE24E1
:101D300022E030E0AE014F5F5F4F60E270E0812F44
:101D40000E949B0B89819A81982789279827E816FA
:101D5000F90689F487E0189FF0011124E551FC4F42
:101D6000F582E482C7010F900F90DF91CF911F9110
:101D7000FF90EF9008957C01DBCF1F93CF93DF930B
:101D8000182F80E591E00E94A501812F0E94810E0D
:101D9000EC0163E070E0812F0E94390A873121F065
:101DA0008C3111F0D0E0C0E0CE01DF91CF911F91D6
:101DB0000895CF93DF93EC018C85843060F40E940A
:101DC0008B0A873111F08C3131F48C850E94BD0E65
:101DD0008115984088F3DF91CF910895FC018485A7
:101DE000843010F40C94BD0E90E080E008959F9232
:101DF000AF92BF92CF92DF92EF92FF920F931F9319
:101E0000CF93DF938C015B01942EE52EFC01C688F5
:101E1000D788F08C80E591E00E94A5018F2D0E946B
:101E2000810EC92DDE2D8C179D0708F4EC019E0153
:101E3000A501B6018F2D0E940C0EF80186899789A5
:101E40008C0F9D1F978B868BCE01DF91CF911F91B9
:101E50000F91FF90EF90DF90CF90BF90AF909F9049
:101E600008958F929F92AF92BF92CF92DF92EF929E
:101E7000FF920F931F93CF936C015B018A01FC01CA
:101E8000C485C430F0F57A014130584018F0E12C97
:101E900088E0F82E80E591E00E94A5018C2F0E9439
:101EA000810E4C0163E070E08C2F0E94390A87316B
:101EB00011F08C3149F58E149F0460F380E591E0B8
:101EC0000E94A5019701A50170E060E08C2F0E949F
:101ED0000C0E60E270E08C2F0E94560A62E070E007
:101EE0008C2F0E94390A84FD17C063E070E08C2FAC
:101EF0000E94390A81110BC081E090E0F6019383C2
:101F0000828310E000E010C0F12CE12CD7CF80E5F7
:101F100091E00E94A501E2CF40E162E070E08C2FE9
:101F20000E94DC08EF2841F3C801CF911F910F9167
:101F3000FF90EF90DF90CF90BF90AF909F908F90E9
:101F40000895FF920F931F93CF93DF9300D0CDB7E7
:101F5000DEB7F82E22E030E0AE014F5F5F4F66E261
:101F600070E00E949B0B09811A811027012710271E
:101F700022E030E0AE014F5F5F4F66E270E08F2DF0
:101F80000E949B0B89819A81982789279827081797
:101F9000190749F4C8010F900F90DF91CF911F915D
:101FA0000F91FF9008958C01E3CF1F93CF93DF93A0
:101FB000182F87E0189FE0011124C551DC4F88815C
:101FC0009981009761F480E591E00E94A501812F3D
:101FD0000E94A10F2E81821B910999838883DF9132
:101FE000CF911F910895FC018485843010F40C94E6
:101FF000D50F90E080E008954F925F927F928F928C
:102000009F92AF92BF92CF92DF92EF92FF920F9387
:102010001F93CF93DF9300D0CDB7DEB7782E6B013F
:102020004A01A82EB12C27E0829FC0011124FC0197
:10203000E551FC4F7F010081118180E591E00E9414
:10204000A5010815190554F4872D0E94A10FF70169
:1020500026818C01021B11091183008301151105D2
:1020600029F563E070E0872D0E94390A843159F028
:10207000882349F001E010E08C3111F410E000E019
:10208000119501951109C8010F900F90DF91CF9123
:102090001F910F91FF90EF90DF90CF90BF90AF9086
:1020A0009F908F907F905F904F900895801691063B
:1020B0000CF4840187E08A9DF0018B9DF00D1124C2
:1020C000E551FC4FE280F380C114D10451F12701A6
:1020D000F7E05F22872D0E949308840D951D2091C3
:1020E0000704273309F453C09801240D351D21300E
:1020F000384008F44CC020E038E0490184189508C5
:10210000A401B6010E94AE092601480C591C6801C1
:10211000C818D908872D0E949308A601B2010E9411
:10212000AE09E00EF11E87E08A9DF0018B9DF00D57
:102130001124E551FC4FF382E28220813181201B82
:10214000310B318320838681800F912F911D8A3F2F
:10215000910510F4232BF1F487E08A9DF0018B9D0B
:10216000F00D1124E551FC4F1682F982EA8222E03B
:1021700030E0AE014F5F5F4F68E270E0872D0E9454
:10218000A10860E470E0872D0E94560A7CCFA80168
:10219000B601C5CF868377CFCF93DF93FC01218D26
:1021A000328D2115310529F48FEF9FEFDF91CF910B
:1021B0000895EC01808D4217530708F0A9010E9491
:1021C000FC0F1816190684F7298D3A8D281B390B38
:1021D0003A8F298FEBCF0F931F93CF93DF931F92EB
:1021E000CDB7DEB7FC01218D328D232B41F48FEF6B
:1021F0009FEF0F90DF91CF911F910F9108958C0168
:1022000041E050E0BE016F5F7F4FFC01808D0E9476
:10221000FC0F181619065CF7F801818D928D019755
:10222000928F818F898190E0E4CFCF93DF931F92CB
:10223000CDB7DEB741E050E0BE016F5F7F4FFC01DC
:1022400084850E94FC0F1816190634F4898190E0E9
:102250000F90DF91CF9108958FEF9FEFF9CFFC01A1
:102260008485843010F40C94FC0F90E080E0089595
:102270000F931F93CF93DF9300D0CDB7DEB7FC0150
:1022800024852430E0F48C0180E591E00E94A501D2
:1022900022E030E0AE014F5F5F4F60E170E0F80197
:1022A00084850E949B0B89819A819827892798278A
:1022B0000F900F90DF91CF911F910F91089590E0B3
:1022C00080E0F6CF0F931F93CF93DF9300D0CDB76D
:1022D000DEB7FC0124852430E0F48C0180E591E038
:1022E0000E94A50122E030E0AE014F5F5F4F64E045
:1022F00070E0F80184850E949B0B89819A81982760
:10230000892798270F900F90DF91CF911F910F9100
:10231000089590E080E0F6CFDC018DE991E08D93A7
:102320009D9384E0FB0101900D928A95E1F7089559
:10233000EF92FF920F931F93CF93DF9300D000D0C3
:10234000CDB7DEB78C017B01FB0184858430A8F01A
:102350008DE991E0F80191838083128213821482C7
:102360001582C8010F900F900F900F90DF91CF91C1
:102370001F910F91FF90EF90089580E591E00E94EA
:10238000A50124E030E0AE014F5F5F4F6CE070E0EC
:10239000F70184850E949B0BBE016F5F7F4FC801D0
:1023A0000E948C11DECF0F931F93CF93DF93CDB795
:1023B000DEB728970FB6F894DEBF0FBECDBF8C01F5
:1023C000D80159964D915C915A974115510551F09C
:1023D000ED91FC91048CF58DE02D70E060E0C8017A
:1023E0000995EECFF801808D0E94D50F892BB1F1B0
:1023F00048E050E0BE016F5F7F4FD80158968C9146
:102400000E94FC0F18161906F4F4D801509684E0C7
:10241000FE01319601900D928A95E1F78D8190E051
:10242000982F88272E81820F911DF801958B848B20
:102430008F81282F30E0322F22278885820F932F1B
:10244000911D928F818F28960FB6F894DEBF0FBE34
:10245000CDBFDF91CF911F910F91089590E080E063
:10246000F2CF4F925F926F927F928F929F92AF9234
:10247000BF92CF92DF92EF92FF920F931F93CF9371
:10248000DF93CDB7DEB763970FB6F894DEBF0FBE0C
:10249000CDBF7C016B013A01FB0120E090E080E0C0
:1024A0006AE03191332309F461C040ED430F4A30B3
:1024B00008F04DC0689FA001699F500D1124CA010A
:1024C000C097830F911D37FD9A958F3F910549F372
:1024D00040F3F70142815381648175818091D70473
:1024E0009091D804A091D904B091DA044817590703
:1024F0006A077B0709F40DC28701085F1F4F0E941E
:10250000E8026F7077277C5FC8010E94E70D813079
:1025100009F004C28DE991E09A838983F7018281F1
:102520009381A481B5818B839C83AD83BE8345E376
:1025300050E0BE016F5F7F4FC8010E943909892BAF
:10254000A9F5D12CC12CC8010E947E0A17C03E32C9
:1025500009F0BFCF233009F4BCCFD301A20FB11DC6
:1025600012968C932F5F90E080E09BCF233009F090
:10257000B0CFF3018583CC24C394D12CC6016396DC
:102580000FB6F894DEBF0FBECDBFDF91CF911F9184
:102590000F91FF90EF90DF90CF90BF90AF909F9002
:1025A0008F907F906F905F904F9008950E94E80207
:1025B000F7017783668342E050E0B7016A5F7F4F9F
:1025C000C8010E94F70E81E090E09A83898342E07F
:1025D00050E0BE016F5F7F4FC8010E94F70E80E0A0
:1025E00091E09A83898342E050E0BE016F5F7F4FA4
:1025F000C8010E94F70E1A82198242E050E0BE0123
:102600006F5F7F4FC8010E94F70E42E050E0BE01AD
:102610006F5F7F4FC8010E94F70E42E050E0BE019D
:102620006F5F7F4FC8010E94F70E5601F60180814F
:10263000882301F16501F60181912F01882311F0B2
:102640008E32B1F446018A189B081814190474F4E8
:102650008D8641E050E0BE01635F7F4FC8010E945C
:10266000F70EA401B501C8010E94F70E5201DECF9A
:102670006201E1CF1D8641E050E0BE01635F7F4F04
:10268000C8010E94F70EC12CDD24D394DA82C982DE
:1026900042E050E0BE016F5F7F4FC8010E94F70E1D
:1026A000DA82C98242E050E0BE016F5F7F4FC8010D
:1026B0000E94F70EC8010E94F20A892B09F441CF4B
:1026C000F3E0AF2EB12C230122E0420E511CD4C006
:1026D000F7014281538164817581808D918DA28D36
:1026E000B38D481759076A077B0709F008C1848D25
:1026F000958DC59709F003C181A192A15DEFC52E0B
:10270000DD24DA940C970CF4ADC04CE050E0BE012F
:102710006F5F7F4FC8010E94CC108B819C819827EE
:10272000892798279A8B898BF701468157812981C0
:102730003A814217530709F0E7C097FFE5C08F7051
:1027400092703BEFC32EDD24DA94892B09F08AC006
:102750006F8078847624672476242AEFC22EDD24C5
:10276000DA946114710409F47DC0D12CC12C8D81DF
:102770009E81982789279827C816D906F8F441E042
:1027800050E0BE01635F7F4FC8010E94CC104D85B1
:10279000442331F050E070E060E0C8010E94CC10AA
:1027A0008D858111ECCF44E050E070E060E0C8011D
:1027B0000E94CC10FFEFCF1ADF0AD9CF912C812CC9
:1027C00041E050E0BE016D5E7F4FC8010E94CC1019
:1027D0004B89842F807C09F06CC0442331F050E099
:1027E00070E060E0C8010E94CC108B898111E8CFB5
:1027F00042E050E0BE01615F7F4FC8010E94CC10F3
:1028000042E050E0BE01635F7F4FC8010E94CC10E0
:1028100044E050E070E060E0C8010E94CC1042E06B
:1028200050E0BE016F5E7F4FC8010E94CC108F85C3
:10283000988949895A898115914009F043C0CD840E
:10284000DE84DC24CD24DC2481E0C816D104D1F55B
:102850004115544009F04AC044E050E0B201C801BB
:102860000E94CC1021E0A21AB10809F46CCEFFEF4F
:10287000CF16DF0609F067CE0E94E8023B014C014B
:10288000C8010E94D311181619060CF421CF0E941A
:10289000E802661977098809990969387341810541
:1028A000910548F562E370E080E090E00E94B60296
:1028B000E7CF41E050E070E060E0C8010E94CC103A
:1028C0001B8A93CF54274527542770E060E0C80146
:1028D0000E94CC10FFEF8F1A9F0A6814790409F048
:1028E0006FCF96EFC92EDD24DA94BCCFE7EFCE2E62
:1028F000DD24DA94B7CFCC24CA94DC2CB3CF6EEFAE
:10290000C62EDD24DA94AECF4CEFC42EDD24DA944B
:10291000A9CF8EEFC82EDD24DA9430CED12CC12C75
:102920002DCECF92DF92EF92FF920F931F93CF9312
:10293000DF93CDB7DEB7AF970FB6F894DEBF0FBE0B
:10294000CDBF7C016A010DE911E01A8309831C8661
:102950001B8688EE93E0A0E0B0E08D879E87AF876E
:10296000B88B83E291E09A878987188F0F8B198E35
:102970001A8E1B8E1C8E84E089A31BA70AA71CA697
:102980001DA61EA61FA68091CB049091CC04A091F9
:10299000CD04B091CE048EA39FA3A8A7B9A78B8323
:1029A0009C83AD83BE8318861F82AE01465D5F4F58
:1029B000CE0101960E94311281309105B1F4D70108
:1029C000ED91FC910488F589E02D1DA30CA38CA545
:1029D0009DA5AEA5BFA58EA39FA3A8A7B9A7A60135
:1029E000BE016C5D7F4FC7010995AF960FB6F89495
:1029F000DEBF0FBECDBFDF91CF911F910F91FF9032
:102A0000EF90DF90CF900895CF92DF92EF92FF92F8
:102A10000F931F93CF93DF93CDB7DEB7AF970FB66A
:102A2000F894DEBF0FBECDBF8C016B017A018DE93A
:102A300091E09A8389831B821C821D821E821C86E0
:102A40001B8648EE53E060E070E04D875E876F873D
:102A5000788B23E231E03A872987988F8F8B198E04
:102A60001A8E1B8E1C8E24E029A39BA78AA71CA666
:102A70001DA61EA61FA6D8011C968C91843060F45A
:102A80000E948B0A882321F0F80184850E94660A3F
:102A900084E0D8011C968C938091CB049091CC0457
:102AA000A091CD04B091CE048EA39FA3A8A7B9A7EF
:102AB0008B839C83AD83BE8318861F82AE01465DE7
:102AC0005F4FB601CE0101960E9431120097C1F00E
:102AD000D801ED91FC910684F785E02D8DE991E018
:102AE0009DA38CA38CA59DA5AEA5BFA58EA39FA3DA
:102AF000A8A7B9A7A701BE016C5D7F4FC8010995C2
:102B0000AF960FB6F894DEBF0FBECDBFDF91CF9169
:102B10001F910F91FF90EF90DF90CF9008958F92CB
:102B20009F92AF92BF92EF92FF920F931F93CF931A
:102B3000DF93CDB7DEB7A1970FB6F894DEBF0FBE17
:102B4000CDBF7C01FA01CB0119A2223008F42AE0A2
:102B50008E010F5D1F4F822E912CB12CA12CBF0135
:102B6000A50194010E948F2DF901CA016A3074F504
:102B7000605DD8016E938D01232B242B252B79F7D3
:102B800090E080E0109789F0FD0101900020E9F7C6
:102B90003197AF014A1B5B0BD701ED91FC9102808D
:102BA000F381E02DB801C7010995A1960FB6F894FD
:102BB000DEBF0FBECDBFDF91CF911F910F91FF9070
:102BC000EF90BF90AF909F908F900895695CD1CFA8
:102BD0008F929F92AF92BF92CF92DF92EF92FF922D
:102BE0000F931F93CF93DF937C01EB016C0182E085
:102BF000C80ED11C4701E5E08E0E911C10E000E0EC
:102C0000F60141916F0150E070E060E02AE0CE01F2
:102C10000E948F155C01E881F9810190F081E02D1F
:102C20006EE2CE0109958A0D9B1D080F191FC8146D
:102C3000D90431F7F701458150E070E060E02AE007
:102C4000CE010E948F15800F911FDF91CF911F91B0
:102C50000F91FF90EF90DF90CF90BF90AF909F903B
:102C60008F900895FB0101900020E9F73197AF01A3
:102C7000461B570B0C94FD03AF92BF92CF92DF928D
:102C8000EF92FF920F931F93CF93DF937C016B0121
:102C9000EA0110E000E0209741F0DC0118966D9108
:102CA0007C91CA010E9441288C01C7010E940A053B
:102CB000882309F442C0F701A084B184B501C6019C
:102CC0000E9441289801295F3F4F820F931FA81649
:102CD000B90698F1D70116966D917C9145E050E0C8
:102CE000C6010E948301BE01600F711FFE01EC014D
:102CF000CE1BDF0B6E01CE0EDF1ED70116964D9157
:102D00005C916E177F0731F02191D601A40FB51F9A
:102D10002C93F0CF055011099801280F391F60E35B
:102D2000C701DF91CF911F910F91FF90EF90DF903E
:102D3000CF90BF90AF900C943F0580E0DF91CF9192
:102D40001F910F91FF90EF90DF90CF90BF90AF90C9
:102D50000895EF92FF920F931F93CF93DF93CDB718
:102D6000DEB7C054D1090FB6F894DEBF0FBECDBF99
:102D70007B019F938F938FE991E09F938F9382E6DE
:102D800091E09F938F931F9280E48F938E010F5F4A
:102D90001F4F1F930F930E944C28A701B8018091E9
:102DA0009002909191020E943C160FB6F894DEBFFB
:102DB0000FBECDBFC05CDF4F0FB6F894DEBF0FBEB5
:102DC000CDBFDF91CF911F910F91FF90EF900895AC
:102DD000CF93DF93EC0187E691E09F938F938091EF
:102DE0008D021F928F9380918F028F9380918E021C
:102DF0008F930E944C280F900F900F900F900F9080
:102E00000F9060918E0270918F02CE01DF91CF9171
:102E10000C94A916CF92DF92EF92FF920F931F931B
:102E2000CF93DF93CDB7DEB728970FB6F894DEBF08
:102E30000FBECDBF0091D7031091D803C8010E94E7
:102E40000A05811117C1D80114968D919C91DC015E
:102E5000ED91FC910688F789E02D0995882309F406
:102E600054C081E090E0F8019787868787E0E8E129
:102E7000F1E0DE01119601900D928A95E1F7FE01D5
:102E8000319685E090E02191D80116964D915C91A4
:102E9000DA01A80FB91F2C9301968C30910599F790
:102EA000D8011696ED91FC91179782E884871696C3
:102EB000ED91FC9117971B968C911B978587169621
:102EC000ED91FC9117971A968C911A978687189610
:102ED000ED90FC90B7018BEB91E00E944128419668
:102EE000F801E816F90608F045C084819581DC01F7
:102EF000ED91FC910488F589E02D099563E072E07D
:102F000088E094E00E94321605C1D80191966D9137
:102F10007C91929714968D919C91DC01ED91FC919E
:102F2000D80193964D915C9194976115710569F064
:102F30000088F189E02D0995019709F492CF8EEF71
:102F40009FEFF80190A787A3D9CF0684F785E02DDE
:102F50002DE931E03A8329835D96CD90DD90ED90A7
:102F6000FC909097CB82DC82ED82FE82BE016F5F87
:102F70007F4FE1CF668177814FE050E08BEB91E0AE
:102F80000E9483017C01D8011896CD90DC90B60197
:102F900087EC91E00E9441288E0D9F1D0296F8015A
:102FA000C816D90608F4A1CF66817781A70187ECFE
:102FB00091E00E9483019C0125503109D8011696A9
:102FC0004D915C9160E1C8010E943F050E94E802BA
:102FD000F801608B718B828B938B648B758B868BE6
:102FE000978BF80184819581DC01ED91FC9100843F
:102FF000F185E02D0995892BF9F40E94E802F8018A
:10300000C488D588E688F7889B01AC012C193D0956
:103010004E095F0969017A0124853585A8EEB3E080
:103020000E94B12DC616D706E806F906D0F28CEF3D
:103030009FEF90A787A359CFBE01685F7F4FC8015C
:103040000E942806643071058105910509F076C05B
:10305000D8011696ED91FC9117978381811169C073
:103060000E94E802F801648B758B868B978B108E1B
:1030700010A617A26CED71E088E094E00E94321671
:103080000091D7031091D803D8011896ED90FC90C9
:10309000B70187EE91E00E9441280996E816F906EB
:1030A000C8F1C8010E940A058823A1F1F8018685AC
:1030B0009785019609F444C097878687D8011696AC
:1030C000ED91FC9117971F968C911F97858316960B
:1030D000ED91FC9117971E968C911E9786831696FC
:1030E0006D917C9147E050E087EE91E00E94830172
:1030F000D8011696ED91FC911797E80FF91F1082F1
:103100009C012450310916964D915C9162E8C801EA
:103110000E943F0528960FB6F894DEBF0FBECDBFC4
:10312000DF91CF911F910F91FF90EF90DF90CF90A3
:10313000089590E098969C938E939797F801D5CE3A
:1031400081E090E097878687B9CF3F924F925F9258
:103150006F927F928F929F92AF92BF92CF92DF92A7
:10316000EF92FF920F931F93CF93DF93CDB7DEB70C
:10317000EA970FB6F894DEBF0FBECDBF7C012A01DF
:103180003B0169010E94E8024B015C0187010D5B74
:103190001F4FC8010E94D311181619069CF00E94F7
:1031A000E802681979098A099B09461657066806D4
:1031B000790608F466C162E370E080E090E00E9466
:1031C000B602E7CF42E250E0BE016F5F7F4FC80119
:1031D0000E94CC1089818230D1F0312C832DEA9667
:1031E0000FB6F894DEBF0FBECDBFDF91CF911F9118
:1031F0000F91FF90EF90DF90CF90BF90AF909F9096
:103200008F907F906F905F904F903F900895F8015E
:10321000848995898334910501F76D817E818F8141
:1032200098850E948C2F4B015C01F601808291826F
:10323000A282B38246E050E0B701685F7F4FCE01C3
:103240004D960E94BE30892B41F6F7018081918115
:10325000A281B38188169906AA06BB0608F4BDCFE1
:1032600084819581A681B78188159905AA05BB053A
:1032700008F4B3CF89899A89AB89BC8986879787F7
:10328000A08BB18B4EEC50E070E060E0C8010E9472
:10329000CC10312CC701829698AB8FA7F701B69658
:1032A000FAABE9AB08969CAB8BAB67019AE1C90E10
:1032B000D11CBD96FEABEDABC701429698AF8FAB6C
:1032C000FD97FAAFE9AF4701FEE18F0E911CF801BF
:1032D000818D928D181619060CF080CFC8010E94BE
:1032E000EB108333910509F4B2C014F581309105D8
:1032F00009F464C044F4892B51F3C8010E94EB1017
:10330000AC01552775C08330910509F462C006975A
:10331000A1F7C8010E94EB10B82E44E050E0B401C0
:10332000C8010E94CC10EB2DE450FF0BAF0160C030
:103330008A33910509F45FC084F585339105B1F1B5
:10334000C697D9F6C8010E94EB105C01B601CE0108
:1033500089960E948C118BA59CA5ADA5BEA5892B35
:103360008A2B8B2BB1F0EDA9FEA9408051806280A1
:103370007380B601CE0183960E948C118DA19EA10F
:10338000AFA1B8A5A501481659066A067B0609F043
:10339000B8CF44E050E0B60118C08B33910509F472
:1033A00040C08F3F910509F492CFA7CFC8010E947A
:1033B000EB10C8010E94EB10382E89CFC8010E9483
:1033C000EB1044E050E06FA978ADC8010E94CC102A
:1033D0007ECFC8010E94EB10B82E44E050E069ADEA
:1033E0007AADC8010E94CC108B2D8450990BAC0192
:1033F00070E060E0EACFC8010E94EB1044E050E0CA
:1034000069A97AA9C8010E94CC10F70166A177A129
:1034100080A591A50E948C2F66A377A380A791A772
:1034200056CFC8010E94EB1044E050E06BA97CA984
:10343000C8010E94CC10F70162A573A584A595A5CB
:103440000E948C2F62A773A784A795A740CFC801BD
:103450000E94EB1044E050E06FA578A9C8010E94DB
:10346000CC10F70162A173A184A195A10E948C2FB9
:1034700062A373A384A395A366A777A780AB91AB40
:1034800026CF33243A94AACE7F928F929F92AF9206
:10349000BF92CF92DF92EF92FF920F931F93CF9341
:1034A000DF93CDB7DEB7A6970FB6F894DEBF0FBE99
:1034B000CDBF8C01762E942E852E20E2A22ECE0139
:1034C00001967C01DC01EA2D1D92EA95E9F768017D
:1034D000F3E4CF0ED11C8DE991E09AA389A38FEF7D
:1034E0008BA38CA38DA38EA343E450E0BE016F5D3C
:1034F0007F4FC6010E943909019609F4BFC081E0DF
:1035000089838A8386E0B82EBB821C82D8011496F8
:103510006D917D918D919C9117970E948C2F6D8359
:103520007E838F83988789869A8680E890E09C873F
:103530008B874CE150E0B701C6010E94F70EFE01F7
:1035400037968AE1DF011D928A95E9F74801B8E0D4
:103550008B0E911CF401D70101900D92BA94E1F702
:1035600040E150E0B701C6010E94F70EF701119249
:10357000AA94E9F796E0A92EB12C40E250E0B701F9
:10358000C6010E94F70EF1E0AF1AB108B1F783E669
:10359000898392E89A8393E59B838C8385E38D836B
:1035A00081E08E837F829DE3988797E099878A8761
:1035B00086E0F401DE011B9601900D928A95E1F7F9
:1035C0008CE0898B8A8B62E172E0CE0143960E9487
:1035D000F830D8011B966C91CE0149960E94A80143
:1035E000F8016485CE014B960E94A801D8011D9672
:1035F0006C91CE014D960E94A8014EE150E0B701BA
:10360000C6010E94F70EB3E07B121EC082E38983DD
:1036100084E08A83F80196859B8397859C839089B3
:103620009D8391899E8396E39F838887828D898776
:10363000838D8A87848D8B87858D8C874CE050E0C5
:10364000B701C6010E94F70E87E3898386E08A836B
:1036500091E09B8393E09C838D838FE08E838AE34C
:103660008F838BE388878FEF898749E050E0B7012C
:10367000C6010E94F70EC6010E94F20AA6960FB676
:10368000F894DEBF0FBECDBFDF91CF911F910F9198
:10369000FF90EF90DF90CF90BF90AF909F908F9072
:1036A0007F9008952F923F924F925F926F927F92F8
:1036B0008F929F92AF92BF92CF92DF92EF92FF9242
:1036C0000F931F93CF93DF9300D000D000D0CDB7DE
:1036D000DEB78C010E94DB272FEC37E040E050E0A2
:1036E0000E94262DDC01CB010196A11DB11DF80120
:1036F00084839583A683B78380839183A283B383D6
:103700005801F3E4AF0EB11CC5010E947E0A64E4C7
:1037100070E0C5010E94E70D882309F445C10E94AD
:10372000E8022B013C01480182E4880E911C48EE1E
:10373000C42E43E0D42EE12CF12C52E0252E1E8223
:103740001D82D4018C918330B1F1811166C0F801E2
:1037500084819581A681B7810196A11DB11D8483C5
:103760009583A683B7830E94E802641975098609C8
:103770009709A70196010E948F2DA90161E0C80158
:103780000E94441A81E0D4018C938D819E8101971F
:10379000C1F20E94E8026419750986099709D801E7
:1037A000D6962D913D914D915C91D997261737076B
:1037B0004807590720F6C5010E947E0AF801848156
:1037C0009581A681B7810196A11DB11D8483958342
:1037D000A683B7830E94E802F801FE966083718396
:1037E000828393838D819E8126960FB6F894DEBFE7
:1037F0000FBECDBFDF91CF911F910F91FF90EF9042
:10380000DF90CF90BF90AF909F908F907F906F9000
:103810005F904F903F902F9008958430F1F4F8011D
:1038200084819581A681B7810196A11DB11D8483F4
:103830009583A683B7830E94E802641975098609F7
:103840009709A70196010E948F2DA90163E0C80185
:103850000E94441AD4012C9298CF813051F5F8017E
:1038600042AD53AD64AD75AD9E012F5F3F4FC801B2
:103870000E94A518382EF2E08F1390C089819A819A
:10388000AB81BC81F80184839583A683B7830E94B2
:10389000E8026419750986099709A70196010E9433
:1038A0008F2DA90163E0C8010E94441AD4013C9203
:1038B0006CCF823009F069CFF80142AD53AD64ADF1
:1038C00075AD9E012F5F3F4FC8010E94A518382E8D
:1038D000F5E08F135DC0E3E0D401EC93F80182A121
:1038E00093A1A4A1B5A1892B8A2B8B2B41F484E849
:1038F00093E0A0E0B0E082A393A3A4A3B5A3F80152
:1039000086A197A1A0A5B1A5892B8A2B8B2B61F449
:1039100082A193A1A4A1B5A1B695A79597958795E6
:1039200086A397A3A0A7B1A7F80182A593A5A4A5F4
:10393000B5A5892B8A2B8B2BA9F482A193A1A4A1D5
:10394000B5A1AC01BD0123E07695679557954795E4
:103950002A95D1F7841B950BA60BB70B82A793A7CB
:10396000A4A7B5A7F80186A197A1A0A5B1A586A790
:1039700097A7A0ABB1AB82A593A5A4A5B5A582AB33
:1039800093ABA4ABB5AB81E090E09E838D83FDCE7D
:1039900096E0891303C0D4011C92F7CEBFEF3B120F
:1039A000F4CEF4011082F1CE1E821D821BCFBF9295
:1039B000CF92DF92EF92FF920F931F93CF93DF93FB
:1039C000CDB7DEB72C970FB6F894DEBF0FBECDBFD4
:1039D0006C017A018091900290919102892B99F16A
:1039E000B0908D028B2D90E04817590720F07C0194
:1039F00021E0E21AF10800918E0210918F02A701D6
:103A0000C8010E94CB30F801EE0DFF1D10826FE25D
:103A100070E0C6010E940E31009729F1BC016F5F72
:103A20007F4F4BE050E0CE0101960E94FF301C8694
:103A30006CE272E0C8010E9419310097B1F4CE0126
:103A400001960E94E8162C960FB6F894DEBF0FBEC2
:103A5000CDBFDF91CF911F910F91FF90EF90DF903D
:103A6000CF90BF9008951982E2CF7C012AE0E20E48
:103A7000F11C62E270E0C7010E94ED30892BF9F27F
:103A800067E372E0C8010E9419316C01892B19F0BB
:103A900089E0C80ED11C48E050E066ED71E0C70136
:103AA0000E943328892BB9F5C114D10481F161E456
:103AB00072E0C6010E941931892B49F181E080939F
:103AC0008C02FF24F3946F2D84E00E94200282E296
:103AD00092E0FF2011F089E192E09F938F9384E8B8
:103AE00091E09F938F931F92BF921F930F930E9419
:103AF0004C2860918E0270918F02CE0101960E9437
:103B0000A9160FB6F894DEBF0FBECDBF9CCF1092A2
:103B10008C02F12CD8CF49E050E06CEC71E0C70189
:103B20000E943328892B09F08ACF0E94E80228EEF0
:103B300033E040E050E00E948F2D5F934F933F931E
:103B40002F9380918C021F928F9383EA91E09F9331
:103B50008F931F92BF921F930F930E944C28C9CF3F
:103B60000C9435301F920F920FB60F9211242F93A1
:103B70003F938F939F93AF93BF938091E303909173
:103B8000E403A091E503B091E6033091E20323E062
:103B9000230F2D3758F50196A11DB11D2093E20387
:103BA0008093E3039093E403A093E503B093E603CB
:103BB0008091E7039091E803A091E903B091EA03B3
:103BC0000196A11DB11D8093E7039093E803A09394
:103BD000E903B093EA03BF91AF919F918F913F9119
:103BE0002F910F900FBE0F901F90189526E8230F6E
:103BF0000296A11DB11DD2CF1F920F920FB60F9248
:103C000011242F933F934F935F936F937F938F93E1
:103C10009F93AF93BF93EF93FF9388E094E00E944C
:103C20007B04FF91EF91BF91AF919F918F917F9115
:103C30006F915F914F913F912F910F900FBE0F9019
:103C40001F9018951F920F920FB60F9211242F9369
:103C50008F939F93EF93FF93E0911804F0911904D1
:103C60008081E0911E04F0911F0482FD1BC09081B1
:103C7000809121048F5F8F7320912204821741F07D
:103C8000E0912104F0E0E85FFB4F958F80932104E1
:103C9000FF91EF919F918F912F910F900FBE0F90F9
:103CA0001F9018958081F4CF0F931F93CF93DF93CC
:103CB000E8E0F4E01382128248EE53E060E070E046
:103CC00044835583668377838DE491E09183808379
:103CD00085EC90E09587848784EC90E097878687D1
:103CE00080EC90E0918B808B81EC90E0938B828BC9
:103CF00082EC90E0958B848B86EC90E0978B868BA2
:103D0000118E128E138E148EE5EAF4E0CDE9D1E027
:103D1000D183C0831282138214821582EBEAF4E00D
:103D2000D183C0831282138214821582E1EBF4E006
:103D3000D183C0831282138214821582E7EBF4E0F0
:103D4000D183C0831282138214821582EDEBF4E0DA
:103D5000D183C0831282138214821582E3ECF4E0D3
:103D6000D183C0831282138214821582EFECF4E0B7
:103D7000D183C0831282138214821582E9ECF4E0AD
:103D8000D183C0831282138214821582E5EDF4E0A0
:103D9000D183C0831282138214821582EBEDF4E08A
:103DA000D183C0831282138214821582E1EEF4E083
:103DB000D183C0831282138214821582A7EEB4E0ED
:103DC00082E015968C93159786E116968C9316973C
:103DD000EBE9F2E0E4911796EC931797E7E8F2E04D
:103DE000E4911896EC93189700E81EE320E030E089
:103DF0001D960D931D932D933C935097EAEFF4E09D
:103E0000D183C0831282138214821582E8E3F5E025
:103E1000D183C0831282138214821582E9E2F5E015
:103E20001382128244835583668377838BE691E005
:103E30009183808384E0848788EE93E096878587EA
:103E400000E015E0D80113961C921E9212978FE5A0
:103E500091E011969C938E935C96DC93CE935B9746
:103E60005D961D921D921D921C9290978FEF9FEF71
:103E700098969C938E9397971596FC93EE93149730
:103E800096961C921E92959780E091E00E94992F41
:103E9000F8019783868380E091E0918780878FE0A7
:103EA00090E09387828795878487EEE3F5E0D1835E
:103EB000C0831282138214821582DF91CF911F91E9
:103EC0000F910895CF93DF93CDB7DEB7AB970FB6C1
:103ED000F894DEBF0FBECDBF789484B5826084BDF8
:103EE00084B5816084BD85B5826085BD85B58160FE
:103EF00085BD80916E00816080936E00109281007C
:103F00008091810082608093810080918100816036
:103F100080938100809180008160809380008091F7
:103F2000B10084608093B1008091B0008160809383
:103F3000B00080917A00846080937A0080917A004A
:103F4000826080937A0080917A00816080937A0009
:103F500080917A00806880937A001092C100E0918D
:103F60001804F091190482E08083E0911404F09128
:103F700015041082E0911604F09117048FEC8083F1
:103F800010922004E0911C04F0911D0486E08083CF
:103F9000E0911A04F0911B04808180618083E0919C
:103FA0001A04F0911B04808188608083E0911A04D8
:103FB000F0911B04808180688083E0911A04F09165
:103FC0001B0480818F7D808366E472E088E094E04A
:103FD0000E94321662E083E00E944E0262E080910D
:103FE000EC040E944E020E94E802605D7740810965
:103FF00091096093F0047093F1048093F20490931C
:10400000F30487E38093F90461E085E00E944E02A7
:1040100061E086E00E944E0261E087E00E944E026D
:1040200061E084E00E944E0261E087E00E9420028D
:104030004EEF52E05093D5034093D40328EC2093E5
:10404000D60380E095E09093910280939002509384
:104050008F0240938E0220938D0227ED3CE1309336
:104060001A05209319059093D8038093D703809164
:10407000F60281112AC01092DE021092DD0288EE53
:1040800093E0A0E0B0E08093DF029093E002A09381
:10409000E102B093E20283E291E09093DC0280932C
:1040A000DB028DE991E09093EA028093E90210929D
:1040B000EB021092EC021092ED021092EE0284E0FC
:1040C0008093F30281E08093F60288E992E0909376
:1040D000C7038093C603809197028111ADC060E34E
:1040E00072E080E090E00E94B602DFB6F8941FE82C
:1040F000E12E12E0F12E03EA12E080919502811187
:1041000025C0F7018491F8019491E82FF0E0EE0FBB
:10411000FF1FED5AFD4FA591B4918C91982321F486
:1041200061E08AE00E94200261E08AE00E944E0283
:104130008CB580618CBD8CB580648CBD61E08DE0F8
:104140000E944E0261E08BE00E944E028091950237
:104150008F5F80939502DFBEF701E490EE2DF0E0D3
:10416000EE0FFF1FE35AFD4F8591949190939402B7
:1041700080939302F80104910093920261E08AE037
:104180000E944E020E94B40780E591E00E94A501C2
:1041900084E38093070480E80E9480080E94360B25
:1041A000882309F4F5C088E00E9480080E94230B50
:1041B000883009F0EDC080E10E9480080E94230B46
:1041C000803109F0E5C080E00E9480080E94230B46
:1041D000182F8111DDC041E050E0BE016F5F7F4FBD
:1041E0008FE190E00E94AE098981833009F0D0C050
:1041F00080E48093960242E06EE170E0812F0E949D
:10420000DC0842E06FE170E0812F0E94DC081F5F54
:10421000143089F740E06EE170E0812F0E94DC08E5
:1042200040E06FE170E0812F0E94DC081F5F1830D2
:1042300089F781E08093970280E591E00E94A501D3
:1042400046E050E060E071E089E090E00E94D00735
:104250008DE991E09A8389831B821C821D821E82D4
:10426000CE0103960E9431098091C6039091C70345
:10427000DC0192961D921D921D921C929597FC0155
:1042800016A217A210A611A69A961D921D921D9213
:104290001C929D9740E65AEE60E070E046AB57AB4B
:1042A00060AF71AF40EA5FE060E070E0DA964D9396
:1042B0005D936D937C93DD973E9624E1DF011D9223
:1042C0002A95E9F726E0E0E0F1E0DC01189601909C
:1042D0000D922A95E1F7FC01EE5BFF4F10820E94E0
:1042E000521B019709F0BDC080E591E00E94A50135
:1042F0000091C6031091C703B801625F7F4FCE01E2
:1043000001960E948C11CE0103960E943109B801DA
:104310006A5E7F4FCE0101960E948C1144E050E00E
:10432000BE016D5F7F4F81E090E00E94D007B80131
:104330006E5E7F4FCE0101960E948C1144E050E0EA
:10434000BE016D5F7F4F85E090E00E94D007B8010D
:10435000625E7F4FCE0101960E948C118B819C8101
:10436000AD81BE818093CB049093CC04A093CD0407
:10437000B093CE040E9491027F73809106019091C8
:10438000070168277927709307016093060169C0C8
:1043900087E38093070480E80E9480080E94360B20
:1043A000882329F188E00E9480080E94230B88302E
:1043B000F1F480E10E9480080E94230B182F8031C5
:1043C000B1F480E00E9480080E94230B81110FC08D
:1043D00041E050E0BE016F5F7F4F89E390E00E94B3
:1043E000AE098981843019F41093960222CF83E3B9
:1043F0008093070480E80E9480080E94360B88237F
:1044000071F180E10E9480080E94230B803139F510
:1044100082E10E9480080E94230B823101F580E036
:104420000E9480080E94230B811119C084E08093B0
:10443000960215E51A8F41E050E0BE01665E7F4F9F
:104440008BE190E00E94D007198F41E050E0BE015F
:10445000675E7F4F8AE190E00E94D007EACE10921B
:10446000070460ED77E080E090E00E94B602E09102
:10447000D703F091D8038AE592E092A381A38BE55C
:1044800097E094A383A30E940A1787ED9CE1909381
:104490001A058093190560E087E00E942002FE0162
:1044A0007196FC8FEB8F8AEF93E09C0133273BA33F
:1044B0002AA3AE01475F5F4F5E8F4D8F0091C60309
:1044C0001091C7030115110509F4D3C00E94E80239
:1044D0004B015C0178015EE3E50EF11CF701808180
:1044E0009181A281B381A5019401281B390B4A0B4C
:1044F0005B0BCA01B901683E33E073078105910582
:10450000B8F128EE33E040E050E00E948F2D861A8B
:10451000970AA80AB90AD7018D929D92AD92BC92D2
:104520001397F80186A597A5A0A9B1A969017A01F9
:10453000CC0CDD1CEE1CFF1C8C159D05AE05BF05CB
:1045400008F003C1D8019E961D921D921D921C92E7
:10455000D197F80182A993A9A4A9B5A98C159D05A5
:10456000AE05BF0508F0FBC012AA13AA14AA15AA2B
:10457000F80186A597A5A0A9B1A9892B8A2B8B2B19
:1045800009F0F6C0EE5BFF4F8081833009F0F0C088
:1045900084E08083C8010E94521B0196D801D29604
:1045A0004D915D916D917C91D597452B462B472B75
:1045B000A1F4F801EE5BFF4F2081233011F02111AF
:1045C0000CC01082F8013E9684E1DF011D928A95AD
:1045D000E9F7C8010E94521B03968230910519F039
:1045E000049709F046C080E591E00E94A501009182
:1045F000C6031091C703B801625F7F4FCE010196D9
:104600000E948C11CE0103960E943109B8016A5EA6
:104610007F4FCE0101960E948C1144E050E0BE0114
:104620006D5F7F4F81E090E00E94D007B8016E5E21
:104630007F4FCE0101960E948C1144E050E0BE01F4
:104640006D5F7F4F85E090E00E94D007B801625E09
:104650007F4FCE0101960E948C118B819C81AD8190
:10466000BE818093CB049093CC04A093CD04B093EF
:10467000CE048091D7039091D8030E940A05882325
:1046800009F489C10091D7031091D803C8010E9491
:104690000A05882309F444C00E94E8026B017C01EA
:1046A000F80122853385A8EEB3E00E94B12D8488FD
:1046B0009588A688B788A7019601281939094A095B
:1046C0005B0949015A01681579058A059B0590F037
:1046D00080889188A288B388A70196012819390992
:1046E0004A095B0949015A01681579058A059B0544
:1046F00008F067C0D80158968C9158978823D9F153
:10470000ECEFFFEF9896FC93EE93979714968D91AC
:104710009C91DC01ED91FC910488F589E02D0995CF
:104720000E94F402882351F08091ED048C3009F44A
:10473000AFC108F053C18B3009F46AC1812C912CB0
:1047400030ECA32E3FE7B32E8DC1821B930BA40B3D
:10475000B50BF80186A797A7A0ABB1ABFACE821B29
:10476000930BA40BB50B82AB93ABA4ABB5AB00CF53
:1047700090E080E013CF1696ED91FC91179780ECB6
:1047800080831696ED91FC911797118214968D9166
:104790009C91159716966D917C91DC01ED91FC91A1
:1047A0000280F381E02D42E050E00995F801C08AD3
:1047B000D18AE28AF38AC48AD58AE68AF78A81E0B6
:1047C000808FF80184819581DC01ED91FC9100845A
:1047D000F185E02D0995892B09F4A2CFBE016F5F09
:1047E0007F4FC8010E9428062B01672B09F4CFC018
:1047F000F801C48AD58AE68AF78A0680F781E02D17
:104800008081807F803309F0A1C0D80159968D91B5
:104810009C91892B09F484CF498150E0CA0102960A
:104820008E0F9F1FDF01A40FB51F11968C90912C46
:10483000982C8824DC016C91860E911C4D5F5F4F93
:10484000BF01640F751FA4010E94D430E981D80113
:1048500016968D919C911797880D991DE80FF92F49
:10486000F11D128216960D90BC91A02D298130E089
:104870001901E2E02E0E311C2A0E3B1E8C9186702F
:1048800089A3F801A18CB28C823009F04CC0C4011C
:10489000820F931FFD01E80FF91F438150E0542F51
:1048A00044276481FA01E60FF11DF8A3EF8F4BEF67
:1048B0005FEF421B530B48195909440D551DBC01AC
:1048C0006B5F7F4F6A0F7B1FC101F5010995D8010E
:1048D0001696ED91FC91179780E480831696ED91E2
:1048E000FC91B9A1B183D8011696ED91FC91B8A1C4
:1048F000B283D8011696ED91FC91BF8DB383F80178
:104900008481958166817781DC01ED91FC91028043
:10491000F381E02D44E050E00995F801C08AD18A86
:10492000E28AF38AFDCE4DEF5FEF421B530B48192D
:104930005909440D551D2D5F3F4F280D391DBD01EF
:10494000620F731FC101F5010995EACE803CC9F4DD
:1049500080ED8083D8011696ED91FC911797118216
:1049600014968D919C91159716966D917C91DC0112
:10497000ED91FC910280F381E02D42E050E0099539
:10498000CFCE803D09F0CCCEF801108EC9CEC80143
:104990000E940A05C5CE0E94E8020091C80310914A
:1049A000C9032091CA033091CB036B017C01C01A6B
:1049B000D10AE20AF30A970186010838134121055A
:1049C000310508F4ADCE6093C8037093C90380939A
:1049D000CA039093CB030E940A17A2CE855182305E
:1049E00008F0ACCE1091E904612F70E0762F6627B5
:1049F00066277F778091EA04682B90E080E00E9430
:104A0000632E2DEC3CEC4CEC5DE30E94F62E5CC07A
:104A10006091E90470E090E080E00E94632E6B01F9
:104A20007C011091EA0417FF0AC0AC019B0160E011
:104A300070E080E89FEB0E94C02D6B017C011F702D
:104A4000612F70E090E080E00E94652E2DEC3CEC40
:104A50004CEC5DE30E94F62EA70196010E94C12D49
:104A60004B015C010E94F402882309F465C0809127
:104A7000ED048B3030F08D3080F18551823008F4B8
:104A800075C1C12CD12C20ECE22E2FE7F22E43C0B1
:104A90001091E904612F70E090E080E00E94632EA5
:104AA0006B017C016091EA046F7070E090E080E03F
:104AB0000E94652E2DEC3CEC4CEC5DE30E94F62E42
:104AC000A70196010E94C12D4B015C0117FFCACFBF
:104AD000B7FAB094B7F8B094C5CF6091E80470E02D
:104AE00090E080E00E94652E2DEC3CEC4CEC5DE308
:104AF0000E94F62E6B017C016091E70470E090E06B
:104B000080E00E94652E9B01AC01C701B6010E94A6
:104B1000C12D6B017C01A5019401C501B4010E9466
:104B2000632F811109C0A7019601C701B6010E9438
:104B3000632F882309F42CC14090D0035090D103F7
:104B40006090D2037090D303C090CC03D090CD037B
:104B5000E090CE03F090CF03332433948FE00E9493
:104B60007F02BC01990F880B990B0E94652E20E9EA
:104B70003EE34AEF5EE30E94F62E20E030E040E2A2
:104B800051E40E94F62E4B015C0120E030E0A901C7
:104B90000E94F12E20E030E040E05FE387FD5EC13F
:104BA000C501B4010E94C12D0E942D2E0E94652EC8
:104BB0002DEC3CEC4CEC5DE30E94F62E4B015C01CD
:104BC00014E018A21F8E8EE00E947F02AF8DB8A164
:104BD000A80FB91FB8A3AF8F64E670E080E090E043
:104BE0000E94B602115079F7EAE6F2E08491ECE90E
:104BF000F2E01491E8E8F2E00491222423940023E7
:104C000089F081110E94F701E02FF0E0EE0FFF1F05
:104C1000E558FD4FA591B491EC911E2322242394D5
:104C20001111212C8091D7039091D8030E940A057D
:104C3000882309F47AC00E94E80268A779A78AA7A6
:104C40009BA72091DE033091DF034091E003509158
:104C5000E103DC01CB01821B930BA40BB50B88385D
:104C60009341A105B10508F460C028A539A54AA55E
:104C70005BA52093DE033093DF034093E003509362
:104C8000E1038E010F5E1F4F21E041E0C301B2013D
:104C90000E9471270850110921E041E0C701B601C7
:104CA0000E9471270850110921E041E0C501B401BB
:104CB0000E9471271F923F923BA13F934AA14F93BD
:104CC0001F922F928F8C98A0969487949694879495
:104CD0009F928F921F930F939E8D9F93AD8DAF9355
:104CE000BC8DBF93EB8DEF938FED91E09F938F93EE
:104CF0008091D6031F928F938091D5038F938091DB
:104D0000D4038F930E944C284091D4035091D50333
:104D100064E772E08091D7039091D8030E943C161B
:104D20000FB6F894DEBF0FBECDBF8091D703909130
:104D3000D8030E940A05811196C061E087E00E94B5
:104D4000200260E086E00E94200260E085E00E9490
:104D5000200280E090E0892B09F4B0CB0E94670428
:104D6000882309F4ABCB0E940000A3CB6091E70439
:104D70007091E80476276727762790E080E00E940C
:104D8000632E2DEC3CEC4CEC5DE30E94F62EC1CE84
:104D900020E030E040E251E4C501B4010E94F62E6B
:104DA0004B015C0120E030E0A9010E94F12E20E0DF
:104DB00030E040E05FE387FD47C0C501B4010E94D9
:104DC000C12D0E942D2E0E94652E2DEC3CEC4CEC4A
:104DD0005DE30E94F62E2B013C0120E030E040E232
:104DE00051E4C701B6010E94F62E6B017C0120E060
:104DF00030E0A9010E94F12E20E030E040E05FE3C6
:104E000087FD27C0C701B6010E94C12D0E942D2E2B
:104E10000E94652E2DEC3CEC4CEC5DE30E94F62EDE
:104E20006B017C014092D0035092D1036092D20377
:104E30007092D303C092CC03D092CD03E092CE0304
:104E4000F092CF03312C8ACEC501B4010E94C02D4F
:104E5000B8CFC701B6010E94C02DD8CFC501B4019B
:104E60000E94C02DA1CE60E087E00E94200261E098
:104E7000332061F186E00E9420020E94E802009146
:104E8000DA031091DB032091DC033091DD036B0129
:104E90007C01C01AD10AE20AF30A97018601053F94
:104EA00011402105310508F454CF6093DA03709363
:104EB000DB038093DC039093DD0361E08091D903F1
:104EC000811160E06093D90386E041CF85E00E94C4
:104ED000200260E0F9CF80910605909107050C94BF
:104EE0003530EF920F931F93CF93DF93E80134E0B7
:104EF00047FD34E1042E000C550B57FF03C05195BC
:104F000041955109E32E022F242FAE010E94562A0B
:104F1000CE01DF91CF911F910F91EF9008958F9265
:104F20009F92AF92BF92CF92DF92EF92FF92CF9378
:104F3000DF93EC01688179818A819B81611571051C
:104F40008105910521F464E279ED8BE597E02DE18F
:104F500033EF41E050E00E94262D49015A019B01A8
:104F6000AC01A7EAB1E40E94452D6B017C01ACEED7
:104F7000B4EFA50194010E94532DC60ED71EE81E62
:104F8000F91EF7FE06C081E0C81AD108E10880E8E2
:104F9000F80AC882D982EA82FB82C701B6019F77EC
:104FA000DF91CF91FF90EF90DF90CF90BF90AF90C7
:104FB0009F908F9008958F929F92AF92BF92CF92C1
:104FC000DF92EF92FF926091080170910901809148
:104FD0000A0190910B01611571058105910521F47C
:104FE00064E279ED8BE597E02DE133EF41E050E0AD
:104FF0000E94262D49015A019B01AC01A7EAB1E4A8
:105000000E94452D6B017C01ACEEB4EFA50194012B
:105010000E94532DC60ED71EE81EF91EF7FE06C0CD
:1050200081E0C81AD108E10880E8F80AC0920801B6
:10503000D0920901E0920A01F0920B01C701B6017A
:105040009F77FF90EF90DF90CF90BF90AF909F90B1
:105050008F900895609308017093090180930A016D
:1050600090930B010895FB01DC014150504030F05A
:105070008D910590801919F40020B9F7881B990BC0
:105080000895FC016150704001900110D8F780959F
:1050900090958E0F9F1F0895AEE0B0E0E2E5F8E234
:1050A0000C94662D0D891E898F89988D2EE02C8396
:1050B0001A83098397FF02C080E090E801979E83DE
:1050C0008D83AE01455E5F4F698D7A8DCE0101966D
:1050D0000E947C284D815E8157FD0AC02F81388552
:1050E000421753070CF49A01020F131FF8011082A4
:1050F0002E96E4E00C94822DABE0B0E0E2E8F8E21A
:105100000C94582D7C013B018A01FC011782168208
:10511000838181FFC8C1CE0101965C01F7019381B3
:10512000F30193FD859193FF81913F01882309F459
:1051300053C1853239F493FD859193FF81913F01ED
:10514000853229F4B70190E00E94982CE7CF912C8A
:10515000212C312CFFE1F31538F08B3211F190F452
:10516000803209F1833229F137FC3CC020ED280F51
:105170002A3050F536FE20C08AE0989E200D11247A
:10518000922E06C08D3291F0803371F7689430F81A
:10519000F30193FD859193FF81913F018111DACF56
:1051A00021C0689431F8689432F8F2CF689433F8EB
:1051B000EFCF689434F8ECCFEAE02E9E200D112456
:1051C000222E689435F8E4CF8E3229F436FC04C1DF
:1051D000689436F8DDCF8C3619F4689437F8D8CF58
:1051E0008836B1F2982F9F7D95549330E0F0833646
:1051F000A1F18337C1F1833509F063C02801F2E0E2
:105200004F0E511CF801C080D180692D70E036FC32
:1052100002C06FEF7FEFC6010E948D2C4C01689495
:1052200037F882010AC00C5F1F4FFFE3F98388241F
:105230008394912C6501E89437F833FE2DC0522CED
:105240008114910471F5552009F468CFB70180E20B
:1052500090E00E94982C5A94F6CFF80180818983BF
:105260000E5F1F4FE4CF2801F2E04F0E511CF801F2
:10527000C080D180692D70E036FC02C06FEF7FEFF7
:10528000C6010E9441284C018201D5CFB70180E2BE
:1052900090E00E94982C2A942814190409F0B0F781
:1052A000CECFF60137FC859137FE81916F01B701B2
:1052B00090E00E94982C51105A94F1E08F1A9108B6
:1052C000BFCF843619F0893609F077C0F80137FE70
:1052D0006BC060817181828193810C5F1F4FF32DC0
:1052E000FF763F2E97FF09C0909580957095619548
:1052F0007F4F8F4F9F4F689437F82AE030E0A50129
:105300000E94C82CC82ECA188C2C432C36FE0CC008
:10531000E89440F8C91440F434FE05C032FC03C0E0
:10532000F32DFE7E4F2E892C44FE95C0FE01EC0D20
:10533000F11D8081803309F087C0242D297E422E03
:10534000842D8870582E43FC95C040FE8FC09C2C45
:10535000821418F42C0C922C981844FE91C0B701BA
:1053600080E390E00E94982C42FE09C088E790E01C
:1053700041FE02C088E590E0B7010E94982CC91454
:1053800008F48AC0CA94D12C9FEFC91AD90ACA0C52
:10539000DB1CF60182916F01B70190E00E94982C0E
:1053A000AC14BD04B1F74FCF60817181072E000CA2
:1053B000880B990B0E5F1F4F92CFD32CE894D4F833
:1053C0002AE030E0853739F1232D297FD22E8F3620
:1053D00001F148F48835A9F0F701868197812B9671
:1053E000E2E10C94742D803749F08837A9F7D4FE98
:1053F00002C06894D2F820E130E00DC06894D4F87F
:10540000F6CF34FE03C0822F8660D82E20E132E032
:1054100002C028E030E0F801D7FE0FC06081718142
:10542000828193810C5F1F4FA5010E94C82CC82E5A
:10543000CA183D2CE89437F867CF6081718190E0FD
:1054400080E00E5F1F4FF0CF42FC02C0839478CF04
:105450008394839475CF842D867809F471CFF6CF29
:10546000B70180E290E00E94982C83948214C0F3EC
:10547000512C73CF522C5818821408F46ECFF8CFE9
:10548000842D867809F47BCF8BE241FE80E247FCD5
:105490008DE2B70190E071CFB70180E390E00E9408
:1054A000982C9A946CCF8FEF9FEF99CFA9E0B0E042
:1054B000ECE5FAE20C945E2D6A01F22EB02E102F6C
:1054C000FBE3AF2EA01608F41BE31F5F012F27E0BC
:1054D000AE014F5F5F4F0E94B52BBC018981982FB1
:1054E0009970913009F43FC09BE2E1FC04C09E2D0D
:1054F0009170E0FC3AC05E2D5071E82FE87083FF98
:1055000046C084E0911101C083E0EF2DE81B8F15A8
:1055100008F0E0E0D6018E2F20E2552351F19923C7
:1055200029F0D6019C93C60101966C0196012D5F6E
:105530003F4FE2FE24C08EE4D6018C9391E4119695
:105540009C93119712968C93D9018E2F90E2811122
:105550001BC0E20FF32FF11D10828EEF9FEF2996F3
:10556000ECE00C947A2D9DE2C6CF90E2C4CF2D934F
:1055700081508111FCCFCE0ED11CE0E0D0CF8EE661
:10558000D6018C9391E6DBCF9D938150E0CF482FDD
:10559000447082FF3DC084E0911101C083E08F150B
:1055A00010F4EF2DE81BD6018E2F20E2552309F1D0
:1055B000992329F0D6019C93C60101966C019601AE
:1055C0002D5F3F4FE2FE1BC089E4D6018C938EE431
:1055D00011968C93119786E412968C93D9018E2F95
:1055E00090E2882309F4B5CF9D938150FACF2D9393
:1055F00081508111FCCFCE0ED11CE0E0D9CF89E6DD
:10560000D6018C938EE611968C93119786E6E4CFA3
:105610009B0177FF02C030E020E0A1E0B0E09111F3
:1056200002C0B0E0A0E0F9013196AE0FBF1F8B2C95
:10563000912CBB2009F461C05401EFEFAE1ABE0AF1
:10564000AA0DBB1DFA161B0619F014F04F2D4A1BAC
:10565000511188C0E3FC59C07601A42FB0E2A1111A
:105660004FC0C40ED11C992309F45BC040E0D601A1
:105670001196F60190836D01552309F448C0012F5E
:10568000060F9A81582F507184FF03C0913309F49B
:10569000015010160CF047C0093008F008E0EEE2A7
:1056A000FE2E5B01A01AB1088501919481949108A6
:1056B0002F3F320729F4D601FC92F60131966F0193
:1056C0006217730794F1021713077CF5DB01A21B25
:1056D000B30BAA24A394B12CAC0EBD1EAA0DBB1D06
:1056E00011968C9121503109D60111962815390552
:1056F000F4F0F60180836D01DBCFB12CA12CA0CF9B
:10570000F701B1937F01A150AACF9111B0CFD6017B
:10571000942F50E302C05D9391509111FCCFC40EC1
:10572000D11C40E0ACCF01E0BACF80E3DBCF621701
:10573000730731F4963388F4953311F4552369F0E7
:10574000F6018083FD01842F90E2811108C0A40F2F
:10575000B11D1C9290E080E002CF81E3F1CF9193E4
:105760008150F3CF911183CF8ACF283008F027E002
:105770003327DA01990F311D87FD9160009661058D
:10578000710539F432602E5F3D9330E32A95E1F7DD
:1057900008959F3F30F080387105610509F03C5F46
:1057A0003C5F3D93913008F08068911DDF93CF936B
:1057B0001F930F93FF92EF92192F987F9695E92FE1
:1057C00096959695E90FFF27EE53FF4F99273327BC
:1057D000EE24FF24A701E70105900894079428F41C
:1057E000360FE71EF81E491F511D660F771F881FD1
:1057F000991F0694A1F70590079428F4E70EF81E68
:10580000491F561FC11D770F881F991F661F0694D9
:10581000A1F70590079428F4F80E491F561FC71FDB
:10582000D11D880F991F661F771F0694A1F7059059
:10583000079420F4490F561FC71FD81F990F661FE2
:10584000771F881F0694A9F784911095177041F06F
:10585000D695C79557954795F794E7941A95C1F74C
:10586000E8E6F0E068941590159135916591959171
:1058700005907FE27395E118F10A430B560BC90BB3
:10588000D009C0F7E10CF11E431F561FC91FD01DE0
:105890007EF4703311F48A95E6CFE894015030F02D
:1058A000080F0AF40027021708F4202F2395022F6F
:1058B0007A3328F079E37D932A95E9F710C07D9338
:1058C0002A9589F6069497956795379517951794B5
:1058D000E118F10A430B560BC90BD00998F0239538
:1058E0007E9173957A3308F070E37C932013B8F7B8
:1058F0007E9170617D9330F0839571E37D9370E3C9
:105900002A95E1F71124EF90FF900F911F91CF910D
:10591000DF91992787FD90950895FC0105906150CE
:1059200070400110D8F7809590958E0F9F1F0895B5
:105930000F931F93CF93DF93182F092FEB018B81C8
:1059400081FD09C01FEF0FEF812F902FDF91CF91C5
:105950001F910F91089582FF14C02E813F818C8189
:105960009D81281739073CF4E881F981CF01019620
:105970009983888310838E819F8101969F838E8374
:10598000E3CFE885F985812F0995892BA1F3DACF3B
:10599000FA01AA27283051F1203181F1E8946F9360
:1059A0006E7F6E5F7F4F8F4F9F4FAF4FB1E03ED006
:1059B000B4E03CD0670F781F891F9A1FA11D680FA4
:1059C000791F8A1F911DA11D6A0F711D811D911DD7
:1059D000A11D20D009F468943F912AE0269F11244C
:1059E0003019305D3193DEF6CF010895462F4770B0
:1059F000405D4193B3E00FD0C9F7F6CF462F4F700B
:105A0000405D4A3318F0495D31FD4052419302D068
:105A1000A9F7EACFB4E0A69597958795779567950E
:105A2000BA95C9F700976105710508959B01AC010E
:105A30000A2E06945795479537952795BA95C9F735
:105A4000620F731F841F951FA01D0895052E97FBDD
:105A50001EF400940E943D2D57FD07D00E948F2D0B
:105A600007FC03D04EF40C943D2D50954095309595
:105A700021953F4F4F4F5F4F0895909580957095BA
:105A800061957F4F8F4F9F4F08950E94B12DA59F25
:105A9000900DB49F900DA49F800D911D1124089529
:105AA000B7FF0C94452D0E94452D821B930B089542
:105AB0002F923F924F925F926F927F928F929F921E
:105AC000AF92BF92CF92DF92EF92FF920F931F930C
:105AD000CF93DF93CDB7DEB7CA1BDB0B0FB6F894BD
